:020000040800F2
:1000000068330020C1020008EB2E000857270008C3
:10001000E92E0008D11E0008653F0008000000001E
:100020000000000000000000000000002D34000867
:1000300041240008000000009D32000885360008B9
:10004000DB020008DB020008DB020008DB0200081C
:10005000DB020008DB020008DB020008DB0200080C
:10006000DB020008DB020008DB020008DB020008FC
:10007000DB020008DB020008DB020008DB020008EC
:10008000DB020008E9200008DB020008DB020008B0
:10009000DB020008DB020008DB020008DB020008CC
:1000A000DB020008DB020008DB020008DB020008BC
:1000B0006137000875380008DB020008DB02000821
:1000C000DB020008DB020008DB020008DB0200089C
:1000D000DB020008DB020008253C0008DB02000808
:1000E000DB020008DB020008DB020008DB0200087C
:1000F000DB020008DB020008DB020008DB0200086C
:10010000DB020008DB020008DB020008DB0200085B
:10011000DB020008DB020008DB020008DB0200084B
:10012000DB020008DB020008DB020008DB0200083B
:1001300000F002F800F0B4F80AA090E8000C824445
:100140008344AAF10107DA4501D100F0A9F8AFF222
:10015000090EBAE80F0013F0010F18BFFB1A43F0A5
:100160000103184780920000A092000010F8013BA4
:100170000A4413F0030408BF10F8014B1D1108BF17
:1001800010F8015B641E05D010F8016B641E01F8C5
:10019000016BF9D1002D15D010F8014B03F00C03C1
:1001A0000C2BA1EB04040ABF10F8013BA4EB831451
:1001B000A4EB032405F1010314F8016B5B1E01F8A5
:1001C000016BF9D5914238BF10F8013BD1D370478C
:1001D0000023002400250026103A28BF78C1FBD850
:1001E000520728BF30C148BF0B6070476E2900F02E
:1001F0006A83702900F0C384662908F07E8265292D
:1002000008F07B82672908F078826129AFF30080CB
:1002100003681B0A28BF41F08001692900F0C280F1
:10022000642900F0BF80752900F0BC806F2900F0C0
:100230005184782900F08F84E92900F0EB83E429C8
:1002400000F0E883F52900F0E583EF2900F04E8403
:10025000F82900F08E840368DB0928BF41F0800193
:10026000632900F06C83732900F07183E32900F0A7
:10027000F186F32900F0F686002070471FB500F0E4
:1002800047FF04000020002107F070F9401C606067
:100290000020002107F054F9E0601FBD10B510BD2B
:1002A00000F008FF1146FFF7E9FF04F0B5FD00F08C
:1002B000E1FF03B4FFF7F2FF03BC01F021F80000F7
:1002C0000948804709480047FEE7FEE7FEE7FEE7EA
:1002D000FEE7FEE7FEE7FEE7FEE7FEE70448054926
:1002E000054A064B704700008936000831010008B6
:1002F000682D002068330020682F0020682F002020
:100300001CB50C46064B7B4469460090204600F025
:10031000F4FA04460020694600F002FB20461CBDAA
:10032000170600000FB41CB5084B06AA7B446946AB
:100330000090059800F0E1FA04460020694600F0BC
:10034000EFFA20461CBC5DF814FB0000F10500002C
:1003500070B50C460546012A05D02878800600D5E0
:10036000EA69002302E0012305E05B1C934202D20C
:10037000E05C0028F9D1A869E618C01AA861286ACB
:1003800018442862284600F00CFA04E0D5E901215F
:1003900014F8010B9047B442F8D3284600F017FA3E
:1003A00070BD00002DE9F041064600241068752953
:1003B000314616A510D000F01BFA002802DA4042A0
:1003C00013A507E031688A0701D512A502E04907A5
:1003D00004D511A5012401E000F013FA00210A223E
:1003E00006F1240709E0B0FBF2FCB0FBF2F302FBDC
:1003F0001C00303078541846491C0028F3D123469D
:100400002A463046BDE8F04100F004BA0000000082
:100410002D0000002B000000200000002DE9F05FFF
:10042000894604464FF0000ADFF874B1FB44C0F877
:1004300020A02046E1688847002874D0252806D0EF
:10044000D4E901219047206A401C2062F1E7002690
:100450005F462046E16888472028054607DB312DA6
:1004600005D2781910F8200C08B10643F1E7B0075F
:1004700001D526F00406C4F81CA00027C4F818A073
:100480002A2D09D0284604F0C5FA38B304EB8708B2
:10049000303DC8F8185019E059F8041B204604EB09
:1004A00087029161E1688847012F054618D1E0690C
:1004B000002820DA26F020061DE0D8F8180000EB0E
:1004C000800005EB40003038C8F818002046E1688D
:1004D0008847054604F09EFA0028EED1012F0AD085
:1004E0002E2D08D12046E16888477F1C0546022F43
:1004F00046F02006C4DBA069002803DA404246F03B
:100500000106A061F00701D026F010066C2D0BD07B
:10051000682D09D04C2D39D06A2D35D0742D35D0A9
:100520007A2D33D016E038E0E1682F462046884720
:10053000B842054609D16C2F26D04FF48060E1689F
:10054000064320468847054604E06C2F1AD04FF436
:10055000807006430DB3A5F14100192802D820355B
:1005600046F400664A462946204626604E46FFF776
:100570003DFE80B101280BD0F61D26F0070000F1EA
:10058000080956E74020E4E78020D8E70020D6E7B6
:1005900006F104094DE7284652E7206ABDE8F09FBE
:1005A000168C000030B505460B462A4613F8014B61
:1005B00012F8010B08B1A042F8D01CB1002802D0FB
:1005C0006D1CF1E7284630BD10B5431C02E010F861
:1005D000011B71B18107FAD14FF0013202C88C1AA8
:1005E0008C4314EAC211F9D0C01A0A0603D0C01E07
:1005F00010BDC01A10BD0A0401D0801E10BD090232
:10060000FCD0401E10BD032A40F2308010F0030CD5
:1006100000F0158011F8013BBCF1020F624498BF55
:1006200011F801CB00F8013B38BF11F8013BA2F1F2
:10063000040298BF00F801CB38BF00F8013B11F06D
:10064000030300F02580083AC0F0088051F8043B0D
:10065000083A51F804CBA0E80810F5E7121D5CBF7A
:1006600051F8043B40F8043BAFF30080D20724BFAD
:1006700011F8013B11F801CB48BF11F8012B24BF41
:1006800000F8013B00F801CB48BF00F8012B704790
:1006900010B5203AC0F00B80B1E81850203AA0E81D
:1006A0001850B1E81850A0E81850BFF4F5AF5FEA51
:1006B000027C24BFB1E81850A0E8185044BF18C904
:1006C00018C0BDE810405FEA827C24BF51F8043BAB
:1006D00040F8043B08BF7047D20728BF31F8023BFF
:1006E00048BF11F8012B28BF20F8023B48BF00F893
:1006F000012B70474FF000020429C0F0128010F067
:10070000030C00F01B80CCF1040CBCF1020F18BFED
:1007100000F8012BA8BF20F8022BA1EB0C0100F080
:100720000DB85FEAC17C24BF00F8012B00F8012B53
:1007300048BF00F8012B70474FF0000200B5134688
:1007400094469646203922BFA0E80C50A0E80C50F1
:10075000B1F12001BFF4F7AF090728BFA0E80C50A2
:1007600048BF0CC05DF804EB890028BF40F8042B9B
:1007700008BF704748BF20F8022B11F0804F18BF08
:1007800000F8012B704770477047704710B500F0B4
:1007900001FA006810BD10B5044600F0FBF90460D2
:1007A00010BD70B5044685690068C10601D53026C4
:1007B00000E02026C00707D070BDD4E901213046F3
:1007C0009047206A401C20626D1EF6D570BD70B542
:1007D000044685690078C00707D170BDD4E90121BE
:1007E00020209047206A401C20626D1EF6D570BD07
:1007F00009684A0501D540B27047C905FCD500B269
:10080000704709684A0501D5C0B27047C905FCD5D3
:1008100080B270472DE9F0470D469946924604464E
:1008200000F124080168880604D5E06921F0100170
:10083000216000E00120A84201DD471B00E0002705
:10084000A1697A1902EB0900081AA0612078C00694
:1008500002D42046FFF7A5FF002608E0D4E90121D5
:100860001AF806009047206A401C761C20624E450C
:10087000F4DB2078C0060AD52046FFF792FF06E099
:10088000D4E9012130209047206A401C2062381EA4
:10089000A7F10107F4DC07E0D4E9012118F805000D
:1008A0009047206A401C2062281EA5F10105F3DC58
:1008B0002046FFF78CFF2078000602D50220BDE815
:1008C000F0870120FBE711680268006A530501D533
:1008D00008700AE0D30501D5088006E0130603D5A9
:1008E000C217C1E9000200E0086001207047000063
:1008F00001694A1C02610878704700B58FB0CDE9E4
:1009000001310021059105497944CDE903101146D3
:100910006846FFF783FD0FB000BD0000E5FFFFFF55
:100920000A6802F8010B0A60704710B5436913B1F9
:10093000AFF3008001E0FFF70BFD012010BD12783E
:1009400000F124010A7000224A700122EDE71168CB
:100950004FF0FF32E9E700002DE9FF5F15468A46B8
:100960000446DFF8AC80F8440027D8E900103E4682
:10097000CDE9001010E03AF816106A4602A800F01F
:1009800075FB411C07D02178890603D5E269391827
:1009900091420DD80744761C2078800602D5E06984
:1009A000B84205DDAE42E6DB3AF816000028E2D197
:1009B000A069C01BA0612046FFF7F3FED8E9001034
:1009C000CDE90010002017E03AF818106A4602A896
:1009D00000F04CFBB0F1FF3F81460BD000250DF13C
:1009E000080B05E0D4E901211BF8050090476D1CB8
:1009F0004D45F7D308F10100B0428046E4DB206AA0
:100A0000384420622046FFF7E2FEBDE8FF9F000069
:100A1000768700002DE9F0418046D21D22F00702C2
:100A20000025D2E90002F52915A614D0011E72F1A5
:100A3000000106DA0023D0EB030063EB020211A6EB
:100A400008E0D8F800108B0701D50FA602E049078F
:100A500001D50EA601251146002408F1240704E063
:100A600000F09CF830323A55641C50EA0102F7D18C
:100A70002B46324621464046BDE8F041FFF7CABE4C
:100A8000000000002D0000002B00000020000000EE
:100A900030B4002100F1240408E002F00705D20878
:100AA000303542EA4372DB086554491C52EA0305BB
:100AB000F3D10468002310A2250708D504F0200410
:100AC0000C4304D0C46901230CA2641EC46130BC71
:100AD000FFF7A0BE10B5044621461068FFF791FE4F
:100AE00002462046BDE810400023D1E7D21D22F087
:100AF0000701D1E90023CBE700000000300000002F
:100B0000F0B40D460188090502D5214C7C4402E071
:100B10001F4C7C440E34002100F1240608E002F052
:100B20000F071209E75D42EA03721B097754491C5B
:100B300052EA0307F3D102780023120704D5702D7F
:100B400006D009B1022311342246F0BCFFF762BE81
:100B500001231034F8E770B504460D4621461068AD
:100B6000FFF74FFE024629462046BDE870400023AD
:100B7000C6E7D21D22F00703D3E90023C0E70368CC
:100B8000126843F0200303600823C3610023B7E722
:100B9000D885000000487047042D002030B5B0F122
:100BA0000A024FEA900E71F100034EEA817EB0EB2B
:100BB0000E0061EB91014FEA101E4EEA017E10EB30
:100BC0000E0041EB11114FEA102E4EEA016E10EBB0
:100BD0000E0041EB11214FEA104E4EEA014E10EB90
:100BE0000E0041EB1141401841F100014FEAD000E5
:100BF00040EA41704FEAD10110EB80054FEA8104D1
:100C000044EA907444EB01046D1944EB0404521B54
:100C1000A3414FF0000348BF0A3200D530BD401C4D
:100C200041F1000130BD70472DE9FF4F0C461E46D3
:100C30004FF0FF378BB0D2E90001DDF860800A90F9
:100C40008A46C1F30A5505B93D46002108464FF0D2
:100C50000000BAF1000F00F4400005DA00EB80005C
:100C60004FF4400101EA50004FEA9059B9F1010FE9
:100C700000DDB9460A9850EA4A000ED044F61050FA
:100C8000A5F2FF3545432F14B8F1000F1ED0754271
:100C9000291E1EDDC9F100021CE0B8F1010F4FF062
:100CA000000001D0302103E0F24305E02154401C54
:100CB000B042FBDB30460022002121540B99C1F8E1
:100CC0000880C1E900200FB0BDE8F08FBD1B6D1C8E
:100CD000DEE74A4600DA694206A800F05DFA06AB94
:100CE00093E8070003AB83E8070050460A9900F039
:100CF0000EFB8DE80700A0F500501F380090039808
:100D0000002D09DD42F21F014A46084403A9039061
:100D1000684600F06DFD08E0A0F500504A461F3817
:100D200003A90390684600F077FD8DE807000004F2
:100D3000000C03D04FF0FF30410800E01046B8F13E
:100D4000000F03D00022009215461EE0751E05D448
:100D5000FFF724FF303262556D1EF9D5B3460122EC
:100D6000084302D000227F1C04E02078302801D103
:100D700000227F1E002A099786D01DE0112D07DA78
:100D8000FFF70CFF303262556D1C50EA0102F5D1BD
:100D9000084302D00098C8B10EE00021681E05E0AB
:100DA000235C625C63542254401E491C8142F7DB81
:100DB000AB46A81B401E0990002004F80B000B98BE
:100DC000099AC0F80880C0E9002B7CE711264FF093
:100DD000000859E72DE9F04F88460446D21D22F05D
:100DE000070191B0D1E90001CDE90A0103F088FDC6
:100DF00002460B98C00F01D02D2007E02068810724
:100E000001D52B2002E0202101EAC000032A09902D
:100E100001D0072A05DB03464146204600F07CF955
:100E20000BE12078800601D5E06900E00620B8F1EA
:100E3000650F814606D0B8F1660F18D0B8F1670F7C
:100E400070D131E00020B9F1110F009001DB1123C6
:100E500001E009F101030AAA01A90CA8FFF7E4FEC9
:100E6000DDE90C70002609F10105834647E0012009
:100E70004B4600904FF000470AAA01A90CA8FFF7C3
:100E8000D3FEDDE90DB00C995D46002610B909F1DD
:100E900001000D18B9EB050003D4C0F1FF3609F1CC
:100EA0000105A5EB09002BE0B9F1010F01DA4FF0C4
:100EB00001090020B9F1110F0090484601DD11230E
:100EC00000E003460AAA01A90CA8FFF7ADFEDDE980
:100ED0000C704D4600268346207800070AD4AB45A7
:100EE00000DA5D4601A8012D04DD411911F8011C4D
:100EF000302907D04F4502DA17F1040F04DA012038
:100F000082460FE06D1EEEE7002F02DCED1B3E4433
:100F100003E0781CA84200DD7D1CB81B00F1010A2B
:100F20004FF000472078000703D4AA4501DB4FF0BB
:100F3000FF3A0021B7F1004F0DF143088DF843103F
:100F400024D002202B23002F01DA7F422D230A21F7
:100F5000021EA0F1010000DC5FB197FBF1FC97FBE2
:100F6000F1F201FB1C7C17460CF1300C08F801CDA6
:100F7000EEE7A8F1010003702188090501D545219C
:100F800000E06521A0F1010800F8011C09980FA9F3
:100F9000A1EB0807FF1D00B10120411901EBEA7028
:100FA000A1693844081A401EA0612078C00602D406
:100FB0002046FFF7F6FB099828B1D4E901219047B4
:100FC000206A401C20622078C00622D52046FFF708
:100FD000E8FB1EE0002E04DBB34502DD01A8805DC6
:100FE00000E03020D4E901219047206A401C2062B3
:100FF000761CAAF101005FEA000A0AD100F088F825
:10100000C0680168405CD4E901219047206A401C17
:101010002062281EA5F10105DCDC07E0D4E90121EE
:1010200018F8010B9047206A401C2062381EA7F177
:101030000107F3DC2046FFF7CAFB032011B043E6AB
:1010400010B5436913B1AFF3008001E0FFF784FCF2
:10105000012010BD128800F1240182840022C28484
:101060000122EDE711684FF0FF32E9E770B516464F
:101070000C46054600F044F8036893F80101012886
:1010800006D0FF2C0FD8185D68B101202C7070BD00
:10109000D3F807013246214603F2071303442846DA
:1010A000BDE8704018474FF0FF3070BD00487047F2
:1010B000042D00207546FFF7F9FFAE46050069468E
:1010C000534620F00700854618B020B5FFF706F913
:1010D000BDE820404FF000064FF000074FF0000839
:1010E0004FF0000B21F00701AC46ACE8C009ACE8BA
:1010F000C009ACE8C009ACE8C0098D4670470000E3
:1011000010B500F005F8001D10BD00BF61640000BF
:1011100000487047242D00202DE9F0411F46044669
:1011200003260168072A01F4006004DB08B116A554
:1011300005E016A503E008B115A500E015A521F00E
:1011400010002060A069C01EA0610FB1401EA06108
:101150002046FFF726FB4FB1D4E9012138469047DE
:10116000206A401C2062C01C206206E0206AFAE768
:10117000D4E9012115F8010B9047761EF8D22046DC
:10118000FFF725FBBDE8F0814E414E006E616E0019
:10119000494E4600696E66002DE9F04781461646C5
:1011A0008AB0334878440DC88DE80D003048784443
:1011B000801C03AC0DC884E80D0041F69B30084448
:1011C000372190FBF1F290FBF1F5A5F1800501FBD1
:1011D00012041B3C02D56442012000E00020DFF82D
:1011E00090A080460027FA44AAF1BE0A0DE0E0076D
:1011F00009D03246684607EB47010AEB810100F04F
:101200000BFB8DE8070064107F1C002CEFD1184FFA
:101210007F44AC3F18E0E80714D007EB04100DF151
:10122000180A90E80E008AE80E00C068F04201D16A
:1012300098190890324606A903A800F0EDFA03AB0E
:1012400083E807006D10641C002DE4D13246694626
:10125000B8F1000F03A802D000F0CAFA01E000F0D4
:10126000DBFAC9E90001C9F808200AB0BDE8F08737
:10127000EC7F00000446AFF300802046FFF719F82A
:101280004FF0013C50F8042B51F8043B9A4221D115
:10129000A2EB0C03934313EACC1317D150F8042BA1
:1012A00051F8043B9A4215D1A2EB0C03934313EA85
:1012B000CC130BD150F8042B51F8043B9A4209D1BE
:1012C000A2EB0C03934313EACC13DBD04FF00000E6
:1012D000704700BFD01A01BAB1FA81F101F01801CC
:1012E00022FA01F0CB40C1F12001DBB2C0B2C01A3A
:1012F0002CFA01F3D11A914311EAC311E6D17047D8
:1013000001491820ABBEFEE72600020070475FEAE5
:10131000400C08BF91F0000F4FEA8C234FEAC12226
:1013200043EA51514FEA1C5018BF00F5F0404FEA14
:10133000300018BF41F000415FEA6C5C00F029808A
:10134000BCF1FF3F08BF40F080407047130C06BF60
:1013500012044FF0100C4FF0000C130E04BF1202D9
:101360000CF1080C130F04BF12010CF1040C930FC5
:1013700004BF92000CF1020CD30F04BF52000CF119
:10138000010C11464FF00002A0F11F00A0EB0C0071
:10139000704711F0004F08BF704731F000413FF433
:1013A000D5AF0B0C06BF09044FF0100C4FF0000C2A
:1013B0000B0E04BF09020CF1080C0B0F04BF09014E
:1013C0000CF1040C8B0F04BF89000CF1020CCB0F45
:1013D00004BF49000CF1010CCCF12003A0EB0C0080
:1013E00022FA03F302FA0CF241EA030100F10100D0
:1013F000704720F07F4C80EA030023F07F47ACEB7E
:10140000070303F57C5300F0004003F1FF032DE9CF
:1014100080494FEA154B09B44FEA144325EA0B4EB5
:1014200024EA03480FF2042606EB132749083E7806
:101430005FEA320203FB0667C7F5000707FB06F603
:101440004FEA54374FEAD64606F1020607FB066C10
:10145000CCF1005C4FEA1C472CEA074C07FB06F472
:101460000CFB06F504EB15464FEA961634BF002038
:101470004FF000404FEAD13706FB07FC4FEA1C4C07
:101480000CFB0BF7D21B03FB0CF761EB07010CFB0A
:101490000EF7B0EB074072EB17420CFB08F734BFB6
:1014A000A2EB0742B2EB074261EB17414FEA0C4453
:1014B0004FEA910706FB07FC4FEA1C4C0CFB0BF7AD
:1014C000B0EBC74072EB573203FB0CF734BFA2EB13
:1014D000C742B2EBC74261EB57310CFB0EF7B0EBE2
:1014E000C70072EB57720CFB08F734BFA2EBC702C0
:1014F000B2EBC70261EB5771039F4FEA816141EA8A
:10150000921104EBCC044FEAD1374FEA826206FB1A
:1015100007FC42EA90124FEA80604FEA1C4C0CFB39
:101520000BF7D21B03FB0CF761EB07010CFB0EF76B
:10153000B0EB074072EB17420CFB08F734BFA2EB8D
:101540000742B2EB074261EB17414FEA8C554FEA75
:10155000910704EB9C2406FB07FC4FEA1C4C0CFB98
:101560000BF7B0EBC74072EB573203FB0CF734BFFD
:10157000A2EBC742B2EBC74261EB57310CFB0EF74F
:10158000B0EBC70072EB57720CFB08F734BFA2EB4D
:10159000C702B2EBC70261EB577115EB4C254FEA5E
:1015A000816141EA92114FEA82624FEAD13742EA01
:1015B000901206FB07FC44F100044FEA80604FEAFA
:1015C0001C4C0CFB0BF7D21B03FB0CF761EB070168
:1015D0000CFB0EF7B0EB074072EB17420CFB08F761
:1015E00034BFA2EB0742B2EB074261EB174115EBA8
:1015F0001C154FEA813141EA92414FEA823242EAB8
:1016000090424FEA80304FEA0C7644F1000448EAF9
:1016100003434EEA0B484FF0000EB2EB080C71EB9F
:10162000030724BF624639464EEB0E0E4FF0000B07
:101630000018524149414BEB0B0BB2EB080C71EB1C
:1016400003077BF1000B24BF624639464EEB0E0EBA
:101650004FF0000B0018524149414BEB0B0BB2EB22
:10166000080C71EB03077BF1000B24BF624639467F
:101670004EEB0E0E51EA020718BF46F0010616EBBC
:101680000E7655F1000254F1000103D5BDE8890141
:10169000BDE80088BDE88901BDE80048B61952419F
:1016A00041EB0101A3F10103704780807F7E7D7CC7
:1016B0007B7A7978777676757473727171706F6EE4
:1016C0006E6D6C6C6B6A6A6968686766666564648F
:1016D000636362616160605F5F5E5E5D5D5C5C5B19
:1016E0005B5A5A5959585857575656555555545488
:1016F000535352525251515050504F4F4F4E4E4DE6
:101700004D4D4C4C4C4B4B4B4A4A4A494949484831
:101710004847474747464646454545444444444371
:1017200043434342424242414141002B26D4770089
:1017300021D01CB54FEA370703B44FF010004FF02B
:1017400010014FF000000FBCBDE810400BF1010B81
:10175000BBF1010F08BF5FEA170722BF12F10102B8
:1017600011F101014FF0004143F1000300F000408E
:1017700043EA00007047F9D35708DAE746EA06461D
:1017800013F1400F4FEA16461FDD13F1200FDFBFA4
:1017900016430A46002120335B42C8D0C3F120071C
:1017A00046EA064602FA07F74FEA164646EA0706F1
:1017B000C3F1200722FA03F201FA07F721FA03F135
:1017C0004FF0000342EA0702B1E746EA020646EAA2
:1017D00006464FEA164646EA0106BCBF46EA0646FA
:1017E000360C4FF000034FF000024FF000019EE76F
:1017F0002DE9C048934630B491E8380007C831EA73
:10180000400C48BF34EA430C03D5FFF7F2FDFFF765
:101810008CFFF0BCBDE800882DE9C048934630B489
:1018200091E8380007C810F0804F08BF13F0804FD0
:1018300003D100F005F8FFF778FFF0BCBDE80088A1
:1018400020F07F4780EA030023F07F4C07EB0C0376
:10185000A3F57C5300F00040A3F1FE0392F0000FCB
:1018600000F0B38095F0000F00F077802DE901497A
:101870004FEA11404FEA144621EA004800FB06FCFB
:1018800024EA064708FB06F607FB08F800FB07F703
:1018900018EB06484CEB164C4FEA124B18EB074876
:1018A0004FEA15464CEB174022EA0B4E0BFB06FCA9
:1018B00025EA06470EFB06F607FB0EFE0BFB07F7B5
:1018C0001EEB064E4CEB164C4FF000061EEB074E7F
:1018D0004CEB174B18EB0B0840F1000018EB0E0B0C
:1018E00058EB000840F100008F1A4FF000013CBF98
:1018F000C943661B14BFB5EB040C00213CBFC943B0
:10190000F61B4FEA17444EEA8E0E27EA04454FEACB
:101910001C4704FB07622CEA074C05FB07F70CFB8E
:1019200005F604FB0CFC16EB074642EB174216EBE0
:101930000C4642EB1C421BEB060658EB02024141EF
:1019400046EA9E0601D5BDE80189B619524141EB30
:101950000101A3F10103BDE801894FEA14454FEAF3
:10196000114724EA054621EA074C05FB07F406FB6C
:1019700007F70CFB06F105FB0CFC11EB074144EBF0
:1019800017444FEA124711EB0C4144EB1C4422EA86
:10199000074C05FB07F206FB07F70CFB06F605FBF9
:1019A0000CFC16EB074642EB174216EB0C4642EBDB
:1019B0001C456A1854F1000148BF7047B6195241DE
:1019C00041EB0101A3F10103704795F0000F37D0FF
:1019D0004FEA11424FEA144721EA024624EA074C33
:1019E00002FB07F106FB07F70CFB06F402FB0CFCFD
:1019F00014EB074441EB17414FEA154714EB0C4435
:101A000041EB1C4125EA074C02FB07F506FB07F7F3
:101A10000CFB06F602FB0CFC16EB074645EB1745E4
:101A200016EB0C4645EB1C42121951F1000148BF60
:101A30007047B619524141EB0101A3F10103704710
:101A40004FEA14454FEA114724EA054621EA074CBC
:101A500005FB07F106FB07F70CFB06F24FF000064B
:101A600005FB0CFC12EB074241EB174112EB0C4259
:101A700051EB1C4148BF7047921841EB0101A3F1A3
:101A80000103704721B1826842F00102826003E0E5
:101A9000826822F0010282607047000010B504469F
:101AA0001248844208D10121401501F045FC002173
:101AB000601501F041FC17E00D48844208D1012176
:101AC000001501F039FC0021201501F035FC0BE078
:101AD0000848844208D10121C80301F02DFC0021EF
:101AE0004FF4004001F028FC10BD0000002401402C
:101AF00000280140003C0140014600208A6802F0B5
:101B000004020AB1012000E0002070470146C86CC1
:101B100080B270470246002013680B400BB10120D1
:101B200000E000207047014600208A6802F00802A9
:101B30000AB1012000E000207047000030B50246E5
:101B40000020002350680F4C20400D790C6844EAB7
:101B500005242043506090680B4C2040D1E902548A
:101B60002C434D7944EA450420439060D06A20F428
:101B700070000C7C641EE4B2234340EA0350D06240
:101B800030BD0000FFFEF0FFFDF7F1FFF0B50446A9
:101B90000D4600200021092D11DDE068A5F10A069F
:101BA00006EB4607072606FA07F18843A5F10A0661
:101BB00006EB460603FA06F10843E0600CE02069F4
:101BC00005EB4507072606FA07F1884305EB4506AE
:101BD00003FA06F108432061072A0FDA606B561EEC
:101BE00006EB86071F2606FA07F18843561E06EB0A
:101BF000860605FA06F10843606322E00D2A0FDA33
:101C0000206BD61F06EB86071F2606FA07F18843CE
:101C1000D61F06EB860605FA06F10843206310E09E
:101C2000E06AA2F10D0606EB86071F2606FA07F109
:101C30008843A2F10D0606EB860605FA06F1084375
:101C4000E062F0BD816841F008018160704721B118
:101C5000826842F4A002826003E0826822F4A0025B
:101C600082607047816841F0040181607047000024
:101C700000B587B001214FF4017001F04DFB4FF426
:101C8000004001F00DFB0120ADF8040000208DF8AC
:101C9000070001A9174800F07AFC1748FFF7FEFE7D
:101CA000002002908DF80C008DF80D004FF460209C
:101CB00004900020059001208DF8180002A90E481C
:101CC000FFF73CFF01210C48FFF7DCFE0A48FFF755
:101CD000B9FF00BF0848FFF726FF0028FAD10648E1
:101CE000FFF7C0FF00BF0448FFF706FF0028FAD146
:101CF00007B000BD000801400024014010B5A2B0AB
:101D000080212D48FEF7F6FC2CA22EA12A48FEF7D2
:101D100009FB2948FEF758FC344908608021344803
:101D2000FEF7E8FC33A325A235A13148FEF7FAFA05
:101D30002F48FEF749FC34490860802102A8FEF7CD
:101D4000FBFC2CA01DA31DA230A1009002A8FEF751
:101D5000E9FA02A8FEF738FC0446202034A33D4AE5
:101D60002146009002A803F019FE3A48FEF72CFC29
:101D70003949086080213948FEF7BCFC1DA238A112
:101D80003648FEF7CFFA40F25B703F4908600846DC
:101D9000324902683DA003F07FFD074940A003F0EF
:101DA0007BFD134942A003F077FD2A4944A003F0CC
:101DB00073FD22B010BD0000D82900205A4B5947AE
:101DC0005100000025737C7365637572656D6F64E7
:101DD000653D332C7369676E6D6574686F643D682B
:101DE0006D6163736861317C000000003800002081
:101DF000582A002061315431664936326B5A5700F7
:101E000025732625730000003C000020636C696583
:101E10006E74496425736465766963654E616D65AA
:101E2000257370726F647563744B65792573000058
:101E300039326266373630313333386333313363A6
:101E400063663235356163323332633865393664FF
:101E500000000000D82A002040000020582B00205D
:101E600025732E696F742D61732D6D7174742E63DB
:101E70006E2D7368616E676861692E616C69797532
:101E80006E63732E636F6D0044000020B7FE20CE9A
:101E9000F120C6F7A3BA25733A25640D0A000000A5
:101EA000BFCDBBA7B6CB4944A3BA25730D0A00002A
:101EB000D3C320BBA720C3FBA3BA25730D0A000020
:101EC000C3DC20202020C2EBA3BA25730D0A00003A
:101ED0007047000070B505460C4622462946154855
:101EE0000068801CFEF78FFB2046E11704EB1161B0
:101EF000090A104A12681170E11704EB1161091206
:101F0000A4EB01210B4A12685170002109480268B4
:101F1000A01C11540748006800F596700549086038
:101F20000846006804490968884202D1034801490B
:101F3000086070BD2C0000203400002078200020B4
:101F400010B500241548006820F47020134908607B
:101F50000846006840F40020086004E0601CC4B239
:101F6000012000F0F3FA0E48006808B1642CF5DB9C
:101F7000642C01DB012010BD002404E0601CC4B20D
:101F8000012000F0E3FA0648006808B9642CF5DB8C
:101F9000642C01DB0120EEE70020ECE7040C01409B
:101FA0003081214208B50121082001F0B5F94FF434
:101FB0008050ADF8000010208DF8030003208DF84C
:101FC00002006946064800F0E2FA4FF480510448E6
:101FD00000F073FB00F068F8FFF7B2FF08BD0000E7
:101FE000000C014010B5002404E0601CC4B20120C4
:101FF00000F0ACFA0D48006808B1642CF5DB002451
:1020000004E0601CC4B2012000F0A0FA0748006898
:1020100008B9642CF5DB282000F098FA0348006822
:1020200008B1012010BD0020FCE7000030812142F2
:1020300070B50024002506E06006040EFFF7D2FF0D
:102040000443681CC5B2082DF6DB204670BD7CB584
:1020500005460E4600F028F8FFF772FFF8B9002495
:1020600005E0FFF7E5FF0DF80400601CC4B2052C85
:10207000F7DB9DF800009DF8011008449DF8021060
:1020800008449DF8031008449DF80410884208D1C4
:102090009DF8000030709DF80200287001E00120DA
:1020A0007CBD0020FCE7000010B50C48006820F45F
:1020B00070200A4908600846006840F44030086013
:1020C000002007490860142000F0C2F901200549EA
:1020D000C1F8B0011E2000F039FA10BD040C014017
:1020E000B08121420080214210B54FF0007000F015
:1020F0002FF850B14FF0007000F00CF800210348A9
:1021000000F016F800200249087010BD800002405F
:102110001000002000F0805111B10349086001E077
:102120000249486070470000040402400000024079
:1021300021B1026842F00102026004E002684FF639
:10214000FE731A40026070470146486880B27047CB
:1021500001460020002201F0805313B1054B1A689C
:1021600001E0054B1A6802EA01030BB1012000E00F
:102170000020704700040240000002401AB10368CA
:102180000B43036002E003688B430360704710B5A4
:102190000022026847F6F0739A430C6A8B68234367
:1021A0000C6923434C6923438C692343CC69234343
:1021B0004C6A23438C6A23431A430260CB68436012
:1021C0000B6883604B68C36010BD000010B52A48DF
:1021D00000682A49096888424BD027480168891C51
:1021E00027A003F059FB29A123480068801CFEF7B3
:1021F000D9F930B120212A4800F05DFA01F018F930
:1022000028E028A11C480068801CFEF7CBF930B1FB
:102210002021234800F051FA01F00AF91AE026A122
:1022200015480068801CFEF7BDF930B1022128482E
:1022300000F041FA01F038F90CE026A10E480068E0
:10224000801CFEF7AFF928B10221214800F035FAD1
:1022500001F02AF90848006800F596700649086000
:102260000846006821490968884202D1204802498D
:10227000086000F03FF810BD300000202C00002066
:10228000C3FCC1EE3A25730D0A0000002270617292
:10229000616D73223A7B2264656E67223A317D005C
:1022A0000008014022706172616D73223A7B2264E2
:1022B000656E67223A307D0022706172616D732213
:1022C0003A7B2266656E6773616E223A307D00004C
:1022D000000C014022706172616D73223A7B2266AC
:1022E000656E6773616E223A317D00003400002014
:1022F000782000207047000030B5C3B03648006831
:1023000036490968401A052864D3334800683349C0
:10231000086000F093FA054606F066F8044641A905
:1023200042A8FFF794FE21462DA003F0B5FA9DF8D0
:1023300004219DF808112EA003F0AEFA00F018FE5B
:1023400002220021142000F0D3FE042200212820C4
:1023500000F0CEFE1020022300909DF808210021FD
:102360003C2000F04BFF03220221142000F0C0FEAD
:1023700004220221282000F0BBFE1020022300903E
:102380009DF8042119463C2000F038FF002204216A
:10239000142000F0ADFE01220421282000F0A8FE48
:1023A000102003232246042100903C2000F026FF49
:1023B00000949DF808319DF80421134901A8FDF708
:1023C000B1FF01A8FEF700F905462A4601A90FA0B2
:1023D00000F0C8FC43B030BD040000200000002025
:1023E000D1CCCEED4D51323A25640D0A00000000EB
:1023F000CEC2B6C8A3BA25642020CAAAB6C8A3BA5A
:1024000025640D0A00000000AC9100082F73797359
:102410002F61315431664936326B5A572F5A4B5916
:1024200047512F7468696E672F6576656E742F70DB
:10243000726F70657274792F706F73740000000092
:10244000704710B56FF0040001F008F910BD0000EE
:1024500070B50546B5F5E16F22D205EBC5004FF426
:102460007A7148434FF0E0214861002088610846B6
:10247000006940F00100086100BF4FF0E0200469EE
:1024800004F0010018B104F480300028F5D04FF0BA
:10249000E020006920F001004FF0E02108614FE0EA
:1024A00000261FE028484FF0E021486100208861A5
:1024B0000846006940F00100086100BF4FF0E020CD
:1024C000046904F0010018B104F480300028F5D04C
:1024D0004FF0E020006920F001004FF0E02108619A
:1024E000701CC6B24FF4E160B5FBF0F0B042D9D831
:1024F0004FF4E160B5FBF0F100FB115000EBC000C0
:102500004FF47A7148434FF0E02148610020886120
:102510000846006940F00100086100BF4FF0E0206C
:10252000046904F0010018B104F480300028F5D0EB
:102530004FF0E020006920F001004FF0E021086139
:1025400000F04CF970BD00004031F700014601EB8E
:10255000C1024FF0E0235A6100229A611A461269C3
:1025600042F001021A6100BF4FF0E022106900F052
:1025700001021AB100F48032002AF5D04FF0E022B7
:10258000126922F001024FF0E0231A6170472DE931
:10259000F0410246002500260020002300240027E9
:1025A00091F803C00CF00F0591F803C00CF0100C6B
:1025B000BCF1000F03D091F802C04CEA050591F878
:1025C00000C0BCF1000F31D0146800202BE04FF0A8
:1025D000010C0CFA00F3B1F800C00CEA03069E42AD
:1025E00020D183004FF00F0C0CFA03F7BC4305FA1F
:1025F00003FC4CEA040491F803C0BCF1280F06D197
:102600004FF0010C0CFA00FCC2F814C00AE091F87B
:1026100003C0BCF1480F05D14FF0010C0CFA00FCCF
:10262000C2F810C0401C0828D1D31460B1F800C013
:10263000BCF1FF0F34DD546800202EE000F1080CDF
:102640004FF0010808FA0CF3B1F800C00CEA0306D9
:102650009E4221D183004FF00F0C0CFA03F7BC43CC
:1026600005FA03FC4CEA040491F803C0BCF1280FFE
:1026700005D100F1080C08FA0CF8C2F8148091F8A2
:1026800003C0BCF1480F07D100F1080C4FF001085E
:1026900008FA0CF8C2F81080401C0828CED3546009
:1026A000BDE8F08102460020D3680B400BB1012049
:1026B00000E00020704741617047016170470AB136
:1026C000016100E04161704770B500240A250026D1
:1026D00009E00521002000F027F804440520FFF759
:1026E000B7FE701CC6B2AE42F3DBB4FBF5F080B2AD
:1026F00070BD000010B50446072301222146094899
:10270000FFF744FA01210748FFF7A1FA00BF0221B1
:102710000448FFF7FFF90028F9D00248FFF7F6F95F
:1027200010BD0000002401402DE9F04107460C4691
:102730000025002608E03846FFF7DCFF05440520A9
:10274000FFF786FE701CC6B2A642F4DBB5FBF4F0C0
:1027500080B2BDE8F081704710B54FF400510948D0
:10276000FFF7ABFF4FF400410648FFF7A6FF4FF419
:1027700000410448FFF79FFF4FF400510148FFF765
:102780009AFF10BD000C014010B54FF400510748EE
:10279000FFF793FF4FF400410448FFF78CFF4FF41D
:1027A00000410248FFF789FF10BD0000000C014006
:1027B00010B54FF400510448FFF77FFF4FF400516C
:1027C0000148FFF778FF10BD000C01404CF6CC40EB
:1027D00001490860704700000030004010B500F06B
:1027E00013F810BD70B505460C4645F2555000F083
:1027F0001FF8284600F010F8A0B200F013F800F01F
:1028000003F8FFF7E3FF70BD4AF6AA20014908600C
:1028100070470000003000400149486070470000E8
:1028200000300040014988607047000000300040DF
:102830000149086070470000003000402DE9FE4F5C
:10284000FFF742FF074605F003FE0646334905F051
:1028500013FE05464FF08B4105F004FD044620466B
:1028600005F072FC82462E4A2E4B04F0C7FE054648
:1028700000222D4B05F058F9074605F0D3F80090DB
:1028800005F0CEFD2949019005F0ECFC04462146F7
:10289000224805F0BDFE0646214605F0E3FC05464C
:1028A000234905F0E9FD029022480088012817D14C
:1028B0000022214B8007214902F0ECFA07468846A6
:1028C000029805F041FC82463A46434604F052FF26
:1028D000054604F061FE1A49086000201549088089
:1028E00017480168029805F0BDFC019005F02CFC2A
:1028F00007464FF08042134B02F0CCFA05464FF0EA
:102900008042114B05F010F9824604F045FE8146E5
:102910000E49484605F0B0FDBDE8FE8F3333534005
:102920007B14AE47E17A743F000059400000C84272
:102930000000A0409C040020B6DBDEBF24AEA03F18
:10294000980400208D9700C0332F83400000204161
:1029500010B5164816490860084600681549086011
:102960001548164908601648164908600846006868
:102970001549086015481649086016481649086048
:10298000084600681549086015481649086000F0B7
:102990004BF8002114A000F05BFA00201F490870DA
:1029A0001F4908701F49087010BD0000B80D0020B5
:1029B0001400002018000020EC1500201C0000204E
:1029C0001817002020000020240000204C1F0020A9
:1029D00028000020782000202C000020300000205B
:1029E000AC280020340000202F7379732F613154FC
:1029F00031664936326B5A572F5A4B5947512F740B
:102A000068696E672F736572766963652F70726F80
:102A100070657274792F7365740000005700002090
:102A2000560000205400002070B501207A4908604B
:102A30000A207A4908607A480068001D79490968C7
:102A40000844801C7849096808447849086073483C
:102A500000680968441810207549087000BF2046B6
:102A6000E11704EB5161C911A4EBC115E11704EBA7
:102A70005161CC11002C01DD45F080056C48664A9F
:102A80001268855464480068401C63490860002C43
:102A9000E5DC0021664A60480068115404215E4864
:102AA0000068401C11544D215B480068801C115483
:102AB000512159480068C01C1154542156480068DF
:102AC000001D115454480068401D115404215248FF
:102AD0000068801D1154C2214F480068C01D115468
:102AE00000214D4800680830115464214A480068AC
:102AF000093011544A490868C11700EB1161C1F34C
:102B000007224B4B444909680A315A544449086822
:102B1000C11700EB11610912A0EB0121CAB23E49B5
:102B200009680B315A541A463B4909680C31501850
:102B30003B490A683F49FDF766FD3A490868C117F5
:102B400000EB1161C1F30722334909680C31344BA2
:102B50001B681944364B5A5432490868C11700EBB8
:102B600011610912A0EB0121CAB22B4909680D318C
:102B70002B4B1B6819442E4B5A54274909680E31B8
:102B8000274A126811441A46881826490A682A49B1
:102B9000FDF739FD24490868C11700EB1161C1F345
:102BA00007221D4909680E311D4B1B6819441D4B36
:102BB0001B6819441E4B5A541B490868C11700EB87
:102BC00011610912A0EB0121CAB2134909680F3142
:102BD000134B1B681944134B1B681944144B5A546C
:102BE0000D49096810310E4A126811440D4A1268E5
:102BF00011441A4688180C490A681049FDF703FD6C
:102C000005480068054A12681044084A126881188D
:102C1000074800F0D5FF70BD480000204C000020A0
:102C2000380000203C000020400000205000002020
:102C3000D82B0020D8290020582A0020D82A00208C
:102C40002DE9F04FD1B0804698F8011098F80000B7
:102C500001EB0020509008F1020700208146054654
:102C60000646834601244FF0010A00BF0BF1010B19
:102C700000BF281917F8009009F07F0000FB0A66D2
:102C80004FEACA1A641C09F080000028F1D13019FB
:102C9000054431195098401A50900124A24600264C
:102CA00050980028E2D1594620A002F0F5FD0020FE
:102CB0000546064600BF00BF4C9030E000BF281913
:102CC00017F8009009F07F0000FB0A664FEACA1A65
:102CD000641C09F080000028F1D1601C2844395C94
:102CE0006019385C01EB0020801C4F904F98301A1F
:102CF0004E9029194F9808444D904D98391801A8C5
:102D00004E9AFDF780FC01A84E99FFF7E3F83019C1
:102D100005440124A24600264C98401C4C904C9837
:102D20005845CBDB51B0BDE8F08F0000B1BEB4CE4A
:102D3000BDD3CAD5C1CB2564B8F6CDC6CBCDCAFDAF
:102D4000BEDD0D0A0000000010B5C0200449087067
:102D5000002048700221024800F032FF10BD000040
:102D6000D82B00202DE9F04705468846164601205D
:102D7000334908602846FDF727FC801C314908606C
:102D800031480660084600682F4909684418302019
:102D90002E49087000BF2046E11704EB5161C911AC
:102DA000A4EBC117E11704EB5161CC11002C01DD3C
:102DB00047F080072548224A126887542048006857
:102DC000401C1F490860002CE5DC2846FDF7FCFB91
:102DD000C0F307211D4A1A48006811542846FDF720
:102DE000F3FBC1B2194A16480068401C115428462A
:102DF000FDF7EAFB8146154A11490968891C5018FC
:102E00004A462946FDF7FFFB2846FDF7DDFB0C4946
:102E10000968891C08440D4900EB01093246414606
:102E20004846FDF7F0FB06480068064A1268104461
:102E3000054A12688118054800F0C2FEBDE8F08717
:102E4000480000204C00002050000020D82B00201B
:102E500070B504460D4602201F4908601F490860EE
:102E60002046FDF7B1FBC01C1D49086082201D49AA
:102E700008701A4800781A490978084419494870B6
:102E8000002088700120C8702046FDF79DFB000AD5
:102E9000144908712046FDF797FB124948712046F6
:102EA000FDF792FB0646324621460E48801DFDF78F
:102EB000AAFB2046FDF788FB801D0A490D540648F1
:102EC0000068064A12681044054A126881180548CD
:102ED00000F076FE70BD0000480000204C0000208D
:102EE00050000020D82B00207047704770B500219B
:102EF00000230F22C47804B3154C246804F4E06462
:102F0000C4F5E064210AC1F10403CA40447804FA1C
:102F100003F184781440214309010E4C0678A15531
:102F2000047804F01F050124AC4005786D11AD0054
:102F300005F1E025C5F8004109E0047804F01F051B
:102F40000124AC40044D0678761145F8264070BD4A
:102F50000CED00E000E400E080E100E00249014304
:102F6000024A1160704700000000FA050CED00E015
:102F700070B5002418E004F1B000002100F082F9DF
:102F80000021084600F07EF90021102000F07AF9B7
:102F9000002505E00121002000F074F9681CC5B28D
:102FA000802DF7DB601CC4B2082CE4DB70BD000090
:102FB00008B50121082000F0AFF94FF42040ADF82A
:102FC000000010208DF8030003208DF802006946F0
:102FD0003C48FFF7DCFA4FF420413A48FFF76DFB1D
:102FE0004FF44870FFF734FA0021AE2000F04AF9A0
:102FF0000021084600F046F90021102000F042F9B7
:103000000021402000F03EF90021B02000F03AF904
:103010000021812000F036F90021FF2000F032F974
:103020000021A12000F02EF90021A62000F02AF9AD
:103030000021A82000F026F900213F2000F022F90D
:103040000021C82000F01EF90021D32000F01AF959
:103050000021084600F016F90021D52000F012F9F1
:103060000021802000F00EF90021D82000F00AF99C
:103070000021052000F006F90021D92000F002F916
:103080000021F12000F0FEF80021DA2000F0FAF82B
:103090000021122000F0F6F80021DB2000F0F2F809
:1030A0000021302000F0EEF800218D2000F0EAF839
:1030B0000021142000F0E6F80021AF2000F0E2F833
:1030C00008BD0000000C014070B504460D4605F136
:1030D000B000002100F0D6F8102141EA14100021C0
:1030E00000F0D0F804F00F00002100F0CBF870BD24
:1030F0002DE9F04180460E461546002731464046F0
:10310000FFF7E2FF00240AE0124A02EB8511085D96
:10311000012100F0B7F8781CC7B2601CC4B2102CB3
:10312000F2DB701CC1B24046FFF7CEFF00240CE07A
:103130006900491C074A02EB4111085D012100F0BA
:10314000A1F8781CC7B2601CC4B2102CF0DBBDE83B
:10315000F0810000580000202DE9F04707460E4698
:103160009046994600250024A8F12000C5B27F2F83
:1031700002DD0027B01CC6B2B9F1100F24D13146D0
:103180003846FFF7A1FF002408E004EB0511194AB7
:10319000505C012100F076F8601CC4B2082CF4DB0E
:1031A000701CC1B23846FFF78FFF002409E004EB22
:1031B000051108310F4A505C012100F063F8601CD2
:1031C000C4B2082CF3DB12E031463846FFF77CFF2F
:1031D00000240AE005EB4501074A02EB4101085DC6
:1031E000012100F04FF8601CC4B2062CF2DBBDE8F0
:1031F000F0870000168A0008EE8700082DE9FF5FBF
:10320000074691461E460E9D4FF0000A002435E009
:10321000301B401EC1B20A2001F030FEB9FBF0F0B5
:103220000A21B0FBF1F201FB1208BAF1000F14D130
:10323000701EA04211DDB8F1000F0CD1AB4605EBBA
:10324000DB71491001FB0471C8B22B4620220199A1
:10325000FFF782FF10E04FF0010AAB4605EBDB7190
:10326000491001FB0471C8B208F13001CAB22B4603
:103270000199FFF771FF00BF601CC4B2B442C7DB05
:10328000BDE8FF9F70B504460D461DB1E0B201F0E8
:1032900021FB02E0E0B201F007FB70BD70470000C7
:1032A00001460020034A506820F440400843506023
:1032B000704700000010024029B1064A52690243DB
:1032C000044B5A6104E0034A52698243014B5A613C
:1032D000704700000010024029B1064AD26902433B
:1032E000044BDA6104E0034AD2698243014BDA619C
:1032F000704700000010024029B1064A12690243DB
:10330000044B1A6104E0034A12698243014B1A61BB
:10331000704700000010024029B1064A926902433A
:10332000044B9A6104E0034A92698243014B9A611B
:10333000704700000010024029B1064AD2680243DB
:10334000044BDA6004E0034AD2688243014BDA603E
:10335000704700000010024030B500210022002418
:1033600000232D4D6D6805F00C0121B1042905D015
:10337000082923D105E0294D056022E0274D05608D
:103380001FE0254D6D6805F47012234D6D6805F43E
:103390008034022505EB92421CB9214D554305604E
:1033A0000BE01D4D6D6805F400351DB11C4D5543F6
:1033B000056002E0194D5543056002E0174D0560B8
:1033C00000BF00BF144D6D6805F0F0010909154DEF
:1033D0006B5C0568DD4045600F4D6D6805F4E0618C
:1033E000090A104D6B5C4568DD4085600A4D6D68CB
:1033F00005F46051C90A0B4D6B5C4568DD40C56042
:10340000054D6D6805F44041890B074D6B5CC5683F
:10341000B5FBF3F5056130BD0010024000127A00E3
:1034200000093D009E040020AE040020704700000B
:1034300010B5CCB020210C48FFF734F920B10B496E
:1034400001A8FCF76FFF03E0094901A8FCF76AFF38
:1034500001A8FDF7B9F80446224601A905A0FFF727
:1034600081FC4CB010BD000000080140249200080F
:10347000049300082F7379732F61315431664936F4
:10348000326B5A572F5A4B5947512F7468696E67E0
:103490002F6576656E742F70726F70657274792FF8
:1034A000706F73740000000010B5CCB002210C489E
:1034B000FFF7F8F820B10B4901A8FCF733FF03E050
:1034C000094901A8FCF72EFF01A8FDF77DF8044685
:1034D000224601A905A0FFF745FC4CB010BD000035
:1034E000000C014074930008949200082F737973C4
:1034F0002F61315431664936326B5A572F5A4B5926
:1035000047512F7468696E672F6576656E742F70EA
:10351000726F70657274792F706F737400000000A1
:1035200008B501210420FFF7F7FE01210820FFF76D
:10353000F3FE2020ADF8000003208DF802001420D7
:103540008DF8030069460948FFF721F840F602406C
:10355000ADF8000003208DF8020010208DF8030064
:1035600069460348FFF713F808BD00000008014052
:10357000000C014010B500F001F810BD0CB50020A2
:10358000019000903348006840F480303149086071
:1035900000BF3048006800F4003000900198401CE3
:1035A0000190009818B90198B0F5A06FF1D12948A1
:1035B000006800F4003010B10120009001E000200C
:1035C00000900098012843D12348006840F0100083
:1035D000214908600846006820F00300086008469A
:1035E000006840F0020008601A48406819494860C5
:1035F0000846406848600846406840F4806048607B
:103600000846406820F47C1048600846406840F452
:10361000E81048600846006840F08070086000BF0D
:103620000C48006800F000700028F9D00948406894
:1036300020F00300074948600846406840F0020057
:10364000486000BF0348406800F00C000828F9D12A
:103650000CBD00000010024000200240042808D1E8
:103660004FF0E021096941F004014FF0E0221161BF
:1036700007E04FF0E021096921F004014FF0E0225A
:10368000116170477047000010B51348006840F0A2
:1036900001001149086008464068104908400E4979
:1036A0004860084600680E4908400B490860084613
:1036B000006820F4802008600846406820F4FE007E
:1036C00048604FF41F008860FFF754FF4FF0006020
:1036D0000449086010BD0000001002400000FFF81F
:1036E000FFFFF6FE08ED00E01FB54FF4A060FFF706
:1036F00035FC01210846FFF7EFFD4FF0804000F058
:10370000FFF840F2CF70ADF8080048F69F40ADF8E2
:1037100004000020ADF80600ADF80A0001A94FF042
:10372000804000F0FBF90121880700F0D9F8012260
:103730001146900700F0E9F90121880700F0D3F85D
:103740001C208DF8000002208DF8010001208DF86A
:1037500002008DF803006846FFF7C8FB1FBD00009C
:1037600010B50121880700F0BFF940B10448006896
:10377000401C034908600121880700F0B1F810BD22
:10378000040000201FB54FF4A060FFF7E7FB012104
:103790000220FFF7A1FD184800F0B2F844F61F60C0
:1037A000ADF8080041F61F40ADF804000020ADF868
:1037B0000600ADF80A0001A90F4800F0AFF9012199
:1037C0000D4800F08DF8012211460B4800F09DF9DC
:1037D0000121094800F087F81D208DF80000012024
:1037E0008DF8010000208DF8020001208DF8030003
:1037F0006846FFF77BFB1FBD000400401FB54FF478
:10380000A060FFF7ABFB01210220FFF765FD184820
:1038100000F076F84EF65F20ADF8080048F69F40BD
:10382000ADF804000020ADF80600ADF80A0001A9CB
:103830000F4800F073F901210D4800F051F8012202
:1038400011460B4800F061F90121094800F04BF8DE
:103850001D208DF8000002208DF8010001208DF858
:1038600002008DF803006846FFF740FB1FBD000013
:103870000004004010B50121164800F035F938B3B6
:1038800015480078062819D2DFE800F003060B0C73
:103890000D10FFF759FA11E0FFF774FFFFF754FA24
:1038A0000CE000BF00BFFFF74FFA07E000200B4914
:1038B00008700021074800F016F800BF00BF064856
:1038C0000078401C044908700121024800F008F803
:1038D00010BD0000000400405400002055000020EE
:1038E000CA430282704721B1028842F0010202807D
:1038F00004E002884FF6FE731A4002807047000011
:1039000010B504466848844208D10121C014FFF76D
:1039100013FD0021E014FFF70FFDC4E0B4F1804F68
:1039200008D101210846FFF7E7FC00210120FFF73D
:10393000E3FCB8E05D48844208D101210220FFF792
:10394000DBFC00210220FFF7D7FCACE058488442A2
:1039500008D101210420FFF7CFFC00210420FFF74C
:10396000CBFCA0E05348844208D101210820FFF796
:10397000C3FC00210820FFF7BFFC94E04E488442BE
:1039800008D101211020FFF7B7FC00211020FFF71C
:10399000B3FC88E04948844208D101212020FFF788
:1039A000ABFC00212020FFF7A7FC7CE044488442C8
:1039B00008D101214014FFF7BFFC00216014FFF77C
:1039C000BBFC70E03F48844209D10121C804FFF7E5
:1039D000B3FC00214FF40020FFF7AEFC63E03A484F
:1039E000844209D101210805FFF7A6FC00214FF40C
:1039F0008010FFF7A1FC56E03448844209D1012130
:103A00004805FFF799FC00214FF40010FFF794FCE4
:103A100049E02F48844208D101214020FFF76CFC87
:103A200000214020FFF768FC3DE02A48844208D18D
:103A300001218020FFF760FC00218020FFF75CFC63
:103A400031E02548844208D101218015FFF754FC5C
:103A50000021A015FFF750FC25E02048844209D141
:103A600001210804FFF768FC00214FF48030FFF7C4
:103A700063FC18E01A48844209D101214804FFF789
:103A80005BFC00214FF40030FFF756FC0BE01548BB
:103A9000844208D101218804FFF74EFC00214FF435
:103AA0008020FFF749FC10BD002C014000040040BD
:103AB00000080040000C00400010004000140040CE
:103AC00000340140004C01400050014000540140CE
:103AD00000180040001C0040002000400040014051
:103AE000004401400048014030B502460020002358
:103AF0000024158A05EA0103958905EA010413B13A
:103B00000CB1012000E0002030BD1AB183890B43C5
:103B1000838102E083898B4383817047002202887E
:103B20001D4B98420ED01D4B98420BD0B0F1804FE8
:103B300008D01B4B984205D01A4B984202D01A4B22
:103B4000984204D14FF68F731A404B881A43174B93
:103B5000984207D0164B984204D04FF6FF431A40C4
:103B6000CB881A4302808B8883850B8803850A4B98
:103B700098420BD0094B984208D00E4B984205D082
:103B80000D4B984202D00D4B984201D10B7A03861F
:103B90000123838270470000002C01400034014063
:103BA0000004004000080040000C004000100040ED
:103BB0000014004000400140004401400048014022
:103BC00070B505460C462246294613480068801CFD
:103BD000FCF719FD2046E11704EB1161090A0E4AB2
:103BE00012681170E11704EB11610912A4EB0121B5
:103BF000094A126851700848006800F59670064935
:103C000008600846006805490968884202D10448EE
:103C10000149086070BD000020000020280000203D
:103C20001817002010B540F22551324800F0DEF898
:103C300090B13148007878B92E48001D008858B1FD
:103C40002C48001D00882D492D4A126888542C48A4
:103C50000068401C2A49086040F22441254800F0D1
:103C6000C5F8002844D024480078012840D12148D4
:103C70000088234908601F48001D00880860002153
:103C80002048FEF755FA1F48FEF75EFAC0F580603F
:103C90001B4908600846194902681B480068801CD7
:103CA000FCF7B1FC16480088000A1749096808703B
:103CB000134800781449096848701348006800F5F3
:103CC00096701149086008460068104909688842E2
:103CD00002D10F480C4908600020094908604FF4E0
:103CE000806008496C39086701210648FEF720FA10
:103CF00010BD00000044004055000020B805002021
:103D00000C0000206C000240140000201C00002069
:103D1000B80D002001F40072B2F5007F00D100BFA1
:103D2000CA430280704721B1828942F400528281E5
:103D300004E082894DF6FF731A40828170471AB100
:103D4000838A0B43838202E0838A8B43838270479A
:103D500010B504462048844209D101218803FFF7A9
:103D6000EBFA00214FF48040FFF7E6FA32E01B48FF
:103D7000844209D101214804FFF7BEFA00214FF423
:103D80000030FFF7B9FA25E01548844209D1012136
:103D90008804FFF7B1FA00214FF48020FFF7ACFA56
:103DA00018E01048844209D10121C804FFF7A4FAA1
:103DB00000214FF40020FFF79FFA0BE00A488442ED
:103DC00008D101210805FFF797FA00214FF4801070
:103DD000FFF792FA10BD0000003801400044004097
:103DE00000480040004C00400050004070B50246C2
:103DF000002400230025002040F66A16B14200D1BD
:103E000000BFC1F3421501F01F03012606FA03F3B8
:103E1000012D02D19689334006E0022D02D1168A87
:103E2000334001E0968A33400C12012606FA04F46E
:103E30001688344013B10CB1012000E0002070BDA1
:103E4000F0B50346002400260025002040F66A173E
:103E5000B94200D100BF1846C1F3421401F01F0659
:103E6000012707FA06F5012C01D10C3004E0022CE1
:103E700001D1103000E014301AB107682F430760F9
:103E800002E00768AF430760F0BD00002DE9F0478E
:103E900086B005460E460024A24600BFA146002774
:103EA000B08900B100BF2F462C8A4CF6FF70044049
:103EB000F08804432C82AC894EF6F3100440B0889D
:103EC00031890843718908430443AC81AC8A4FF6B9
:103ED000FF400440B0890443AC8201A8FFF73CFADC
:103EE0001F48874202D1DDF810A001E0DDF80CA0E8
:103EF000A88900F4004040B10AEBCA0000EB0A10A8
:103F000031684900B0FBF1F807E00AEBCA0000EBAA
:103F10000A1031688900B0FBF1F86420B8FBF0F0BA
:103F200004012009642101FB1089A88900F40040E4
:103F300040B1322000EBC900B0FBF1F000F0070007
:103F4000044308E0322000EB09106421B0FBF1F0DB
:103F500000F00F0004432C8106B0BDE8F08700009C
:103F6000003801407047000010B586B004460121BA
:103F70008803FFF7D1F901210420FFF7CDF94FF4B1
:103F80000070ADF8140003208DF8160018208DF88D
:103F9000170005A91248FEF7FAFA4FF48060ADF851
:103FA000140004208DF8170005A90D48FEF7EFFA5C
:103FB00001940020ADF80800ADF80A00ADF80C003F
:103FC000ADF810000820ADF80E0001A90548FFF774
:103FD0005DFF01210348FFF7A6FE06B010BD0000FB
:103FE000000801400038014000B58DB001210846AD
:103FF000FFF762F92C4802902C48039000200490AF
:104000004FF48060059000200690802007900020EB
:10401000089009900A904FF400500B9000200C90EB
:1040200002A92348FEF7B3F801212148FEF780F8E2
:104030001D4802901F480068801C039010200490C7
:104040004FF4967005900020069080200790002085
:10405000089009900A904FF480500B9000200C902B
:1040600002A913481430FEF792F8002110481430CA
:10407000FEF75EF84FF00070FEF74CF801220221C7
:104080000B481430FEF77AF811208DF80400002058
:104090008DF805008DF8060001208DF8070001A8B5
:1040A000FEF724FF0DB000BD04440040B805002019
:1040B0006C0002402400002010B586B004464FF486
:1040C000A060FEF74BFF2E48FFF742FE0121480497
:1040D000FFF702F901210420FFF71EF92848FFF736
:1040E00037FE0420ADF8140003208DF816001820C8
:1040F0008DF8170005A92348FEF749FA0820ADF806
:10410000140004208DF8170005A91E48FEF73FFA99
:1041100001940020ADF80800ADF80A00ADF80C00DD
:10412000ADF810000C20ADF80E0001A91448FFF7FF
:10413000ADFE012240F224411148FFF781FE262006
:104140008DF8000000208DF801008DF8020001209C
:104150008DF803006846FEF7C9FE01224021084899
:10416000FFF7EDFD012280210548FFF7E8FDFFF78D
:104170003BFF01210248FFF7D6FD06B010BD00004D
:10418000004400400008014010B586B004464FF4DA
:10419000A060FEF7E3FE2A48FFF7DAFD012148049C
:1041A000FFF79AF801210420FFF7B6F82448FFF73B
:1041B000CFFD0420ADF8140003208DF81600182060
:1041C0008DF8170005A91F48FEF7E1F90820ADF8A2
:1041D000140004208DF8170005A91A48FEF7D7F936
:1041E00001940020ADF80800ADF80A00ADF80C000D
:1041F000ADF810000C20ADF80E0001A91048FFF733
:1042000045FE20210E48FFF785FD012240F2255191
:104210000B48FFF715FE26208DF8000000208DF8D2
:1042200001008DF8020001208DF803006846FEF7BA
:104230005DFE01210248FFF776FD06B010BD0000CB
:10424000004400400008014010B539A001F024FBF3
:10425000322000F06FFA20B139A001F01DFB0120DF
:1042600010BD3DA001F018FB3EA001F015FB32216E
:1042700041A000F0B1FA20B142A001F00DFB0220F4
:10428000EEE747A001F008FB4A48007800281ED15D
:1042900049A001F001FB32214CA000F09DFA20B1B1
:1042A0004EA001F0F9FA0320DAE754A001F0F4FA85
:1042B00057A001F0F1FA0F2000F0E8F920B159A061
:1042C00001F0EAFA0420CBE75DA001F0E5FA61A075
:1042D00001F0E2FA322163A000F07EFA20B165A07D
:1042E00001F0DAFA0820BBE769A001F0D5FA6CA06A
:1042F00001F0D2FA32216FA000F06EFA20B170A066
:1043000001F0CAFA0920ABE775A001F0C5FA79A05F
:1043100001F0C2FA642000F00FF920B17AA001F098
:10432000BBFA0A209CE77FA001F0B6FA002097E7CD
:10433000D7BCB1B8B8B4CEBBC4A3BFE90D0A000066
:10434000B8B4CEBBCAA7B0DCA3ACD7BCB1B8D6D882
:10435000C6F40D0A00000000B8B4CEBBB3C9B9A6BC
:104360000D0A0000D7BCB1B8C9E8D6C3535441C444
:10437000A3CABD0D0A00000041542B43574D4F44C2
:10438000453D3100C9E8D6C3535441C4A3CABDCA90
:10439000A7B0DCA3ACD7BCB1B8D6D8C6F40D0A0020
:1043A000C9E8D6C3535441C4A3CABDB3C9B9A60D05
:1043B0000A00000011000020D7BCB1B8C8A1CFFB93
:1043C000D7D4B6AFC1ACBDD30D0A000041542B43C6
:1043D000574155544F434F4E4E3D3000C8A1CFFB7F
:1043E000D7D4B6AFC1ACBDD3CAA7B0DCA3ACD7BCE1
:1043F000B1B8D6D8C6F40D0A00000000C8A1CFFBA2
:10440000D7D4B6AFC1ACBDD3B3C9B9A60D0A0000AD
:10441000D7BCB1B8C1ACBDD3C2B7D3C9C6F70D0ABA
:1044200000000000C1ACBDD3C2B7D3C9C6F7CAA74C
:10443000B0DCA3ACD7BCB1B8D6D8C6F40D0A000026
:10444000C1ACBDD3C2B7D3C9C6F7B3C9B9A60D0AAB
:1044500000000000D7BCB1B8C9E8D6C3CDB8B4AB32
:104460000D0A000041542B4349504D4F44453D3106
:1044700000000000C9E8D6C3CDB8B4ABCAA7B0DC11
:10448000A3ACD7BCB1B8D6D8C6F40D0A0000000062
:10449000C9E8D6C3CDB8B4ABB3C9B9A60D0A0000FC
:1044A000D7BCB1B8B9D8B1D5B6E0C2B7C1ACBDD3ED
:1044B0000D0A000041542B4349504D55583D3000E2
:1044C000B9D8B1D5B6E0C2B7C1ACBDD3CAA7B0DCCC
:1044D000A3ACD7BCB1B8D6D8C6F40D0A0000000012
:1044E000B9D8B1D5B6E0C2B7C1ACBDD3B3C9B9A6CE
:1044F0000D0A0000D7BCB1B8C1ACBDD3B7FECEF138
:10450000C6F70D0A00000000C1ACBDD3B7FECEF166
:10451000C6F7CAA7B0DCA3ACD7BCB1B8D6D8C6F42E
:104520000D0A0000C1ACBDD3B7FECEF1C6F7B3C9CA
:10453000B9A60D0A0000000010B5044600202E495F
:1045400008604FF480612D48FCF7D4F82C482D49C1
:1045500002682DA001F0E8F91AE06420FDF778FF69
:1045600030A12648FCF71EF800B115E02FA1234822
:10457000FCF718F808B1012010BD2EA11F48FCF768
:1045800011F808B10220F7E721462FA001F084F9C5
:104590002000A4F10104E0D100BF2CA001F07CF9BF
:1045A000002C01DC0320E7E729A001F075F90020C9
:1045B000114908604FF480611048FCF79BF82CA06B
:1045C00001F0B2F90CE06420FDF742FF2CA10B488A
:1045D000FBF7E8FF00B107E021461BA001F05CF902
:1045E0002000A4F10104EED100BF002C01DC042066
:1045F000C2E70020C0E700000C000020B805002042
:1046000044000020582B002041542B434950535460
:104610004152543D22544350222C222573222C25F2
:10462000640D0A00434F4E4E45435400434C4F53D4
:1046300045440000414C524541445920434F4E4EA1
:104640004543544544000000256420000D0A000045
:10465000C1ACBDD3B7FECEF1C6F7B3C9B9A6A3AC02
:10466000D7BCB1B8BDF8C8EBCDB8B4AB0D0A0000EB
:1046700041542B43495053454E440D0A000000005D
:104680000D0A4F4B0D0A0D0A3E00000010B50446FE
:104690000020144908604FF480611348FCF72AF8A1
:1046A00012A215A116A001F03FF90DE04FF47A70A7
:1046B000FDF7CEFE18A10C48FBF774FF00B107E030
:1046C00021461AA001F0E8F82000A4F10104EDD180
:1046D00000BF17A001F0E0F8002C01DC012010BDA4
:1046E0000020FCE70C000020B805002030303030FE
:1046F000303030300000000079616E67000000004B
:1047000041542B43574A41503D222573222C2225E8
:1047100073220D0A000000005749464920474F54B4
:104720002049500D0A0D0A4F4B000000256420005F
:104730000D0A000010B50446002210211348FDF7B1
:10474000BEFF4FF4FA70FDF783FE012210210F48DF
:10475000FDF7B5FF0CE06420FDF77AFE0CA10E48D2
:10476000FBF720FF00B107E021460CA001F094F810
:104770002000A4F10104EED100BF09A001F08CF8E3
:10478000002C01DC012010BD0020FCE700080140E6
:104790007265616479000000B8050020256420007E
:1047A0000D0A000008B501210420FEF7B5FD102018
:1047B000ADF8000003208DF8020010208DF80300F2
:1047C00069460448FDF7E3FE012210210148FDF788
:1047D00076FF08BD0008014070B505460C46002074
:1047E000134908604FF480611248FBF783FF2946A4
:1047F00011A001F099F80CE06420FDF729FE10A14A
:104800000C48FBF7CFFE00B107E021460DA001F0F8
:1048100043F82000A4F10104EED100BF0AA001F08A
:104820003BF8002C01DC012070BD0020FCE70000FB
:104830000C000020B805002025730D0A00000000C0
:104840004F4B0000256420000D0A00002DE9F041C7
:1048500005462C464FF400511248FDF72CFF002668
:104860001CE0274607F08007802F04D139020D484D
:10487000FDF723FF04E04FF400410A48FDF71BFF5A
:104880006006040E4FF400510648FDF716FF4FF482
:1048900000510448FDF70FFF701CC6B2082EE0DB84
:1048A000BDE8F081000C014010B50446FDF754FF4F
:1048B0007820FFF7CBFFFDF77BFF0020FFF7C6FF57
:1048C000FDF776FF2046FFF7C1FFFDF771FFFDF70B
:1048D0005BFF10BD10B50446FDF73EFF7820FFF7E3
:1048E000B5FFFDF765FF4020FFF7B0FFFDF760FF64
:1048F0002046FFF7ABFFFDF75BFFFDF745FF10BD5F
:10490000490050EAC12018BF04204A0D18BF40F0EA
:10491000010040F2FF72B2EB515F08BF40F00200AD
:10492000012808BF052070472DE9F0414F1E00EB1C
:10493000C7010446D1E9000115461E4637F00602BC
:104940000DD02A46334603F0EFF87F1E04EBC70371
:10495000D3E9002302F052FE37F00602F1D1022F14
:1049600025D0042F13D0062F18BFBDE8F0812A46AA
:10497000334603F0D9F8D4E90A2302F03FFE2A4671
:10498000334603F0D1F8D4E9082302F037FE2A4673
:10499000334603F0C9F8D4E9062302F02FFE2A4675
:1049A000334603F0C1F8D4E9042302F027FE2A4677
:1049B000334603F0B9F8D4E9022302F01FFE2A4679
:1049C000334603F0B1F8D4E90023BDE8F04102F02A
:1049D00015BE0000002213461046014902F0CABE6F
:1049E0000000F03F02F00ABE0022134610461146B6
:1049F00002F0C0BE40F2013200204FF0E04103F06F
:104A0000B0BE0000024A0020110703F0AABE000059
:104A100001FDFFFF30380A2801D201207047002035
:104A20007047000010B51DA000F036FF4FF4E130D4
:104A3000FFF7AAFB00211E48FEF755FF00211D4885
:104A4000FEF751FF00214FF08040FEF74CFF0020A1
:104A5000194908604FF480611848FBF74BFEFFF7D7
:104A6000F3FBC8B916A000F017FF4FF4E130FFF7D1
:104A700023FB0120174908700020174908600E49E0
:104A800008604FF480610D48FBF734FEFDF760FFCE
:104A9000FEF7B4FEFEF728FE10BD0000D7BCB1B88B
:104AA000C1ACBDD3B7FECEF1C6F70D0A00000000C1
:104AB00000080040000400400C000020B805002061
:104AC000C1ACBDD3B7FECEF1C6F7B3C9B9A60D0AC6
:104AD00000000000550000200400002010B56748C9
:104AE00000686749096888422AD06448006880786D
:104AF00010280CD0614800688078822803D1614872
:104B00000078012803D060480078012818D15B485C
:104B1000006881785DA000F0BFFE5848006800F092
:104B2000E9FE5648006800F596705449086008464A
:104B300000685A490968884202D159484F490860BB
:104B4000584800685849096888426FD057A000F05B
:104B5000A3FE54480068807820283BD15148006863
:104B6000407906282ED2DFE800F0030A11181F262C
:104B700051A000F091FE01204249087029E053A0A5
:104B800000F08AFE00205C49087022E05BA000F083
:104B900083FE0020584908701BE064A000F07CFEF2
:104BA00000205549087014E06AA000F075FE00204E
:104BB000514908700DE072A000F06EFE00204E49D1
:104BC000087006E076A000F067FE00204A490870F1
:104BD00000BF42E0334800688078902816D1314801
:104BE0000068807910B1012808D100E000BF75A0ED
:104BF00000F052FE01202449087006E074A000F085
:104C00004BFE00203C49087000BF26E025480068A4
:104C10008078D02815D174A000F03EFE7648007848
:104C2000012804D100207449087016E024E072487D
:104C30000078012811DD00206F490870FEF7DEFDC5
:104C40000BE0184800688078302806D16BA000F08F
:104C500023FE14480068FDF7F3FF1248006800F5D2
:104C600096701049086008460068694909688842DA
:104C700002D168480B49086010BD000024000020E4
:104C8000200000205600002057000020B7A2CBCD06
:104C9000CAFDBEDD3A307825780D0A0028000020D4
:104CA000181700201800002014000020BDD3CAD51A
:104CB000B5BDCAFDBEDD3A00434F4E4E454354B12B
:104CC000A8CEC4B3C9B9A60D0A000000C1ACBDD3BB
:104CD000D2D1BEDCBEF8A3ACB2BBD6A7B3D6B5C4A6
:104CE000D0ADD2E9B0E6B1BEA3ACD7BCB1B8D6D88E
:104CF000C6F40D0A0000000055000020C1ACBDD371
:104D0000D2D1BEDCBEF8A3ACB2BBBACFB8F1B5C449
:104D1000BFCDBBA7B6CBB1EACAB6B7FBA3ACD7BC75
:104D2000B1B8D6D8C6F40D0A00000000C1ACBDD39E
:104D3000D2D1BEDCBEF8A3ACB7FECEF1B6CBB2BBCF
:104D4000BFC9D3C3A3ACD7BCB1B8D6D8C6F40D0A7B
:104D500000000000C1ACBDD3D2D1BEDCBEF8A3AC14
:104D6000CEDED0A7B5C4D3C3BBA7C3FBBBF2C3DCA5
:104D7000C2EBA3ACD7BCB1B8D6D8C6F40D0A0000BC
:104D8000C1ACBDD3D2D1BEDCBEF8A3ACCEB4CADABE
:104D9000C8A8A3ACD7BCB1B8D6D8C6F40D0A0000D9
:104DA000C1ACBDD3D2D1BEDCBEF8A3ACCEB4D6AAC2
:104DB000D7B4CCACA3ACD7BCB1B8D6D8C6F40D0A26
:104DC00000000000B6A9D4C4B3C9B9A60D0A0000FA
:104DD000B6A9D4C4CAA7B0DCA3ACD7BCB1B8D6D8E6
:104DE000C6F40D0A0000000050494E47B1A8CEC4D9
:104DF000BBD8B8B40D0A000054000020B7FECEF1B5
:104E0000C6F7B5C8BCB630CDC6CBCD0D0A00000084
:104E10001C000020B80D002040F271210520FDF794
:104E2000E1FCFDF70EFB4FF41650FFF79DF8FFF77E
:104E3000B9FCFCF763FFFCF71BFFFEF771FBFDF706
:104E4000B1F8FEF7B5F820210A48FDF736FC0FE06F
:104E500009480078012809D1FFF740FEFDF74CFA18
:104E6000FDF7B4F90120FDF7F3FA01E0FFF7DAFDF1
:104E7000EEE70000000801405500002010B5024692
:104E8000012000E050430B00A1F10104E1B2F9D18F
:104E900010BD00002DE9F04D16460F4694B01C469B
:104EA00021F0004123F00042002814BF4FF0010C14
:104EB0004FF0000C0CEB470CFE4B0CEB03054FEADC
:104EC000630C65452BD3350018BF012505EB440560
:104ED0001D44F94B9D4222D3F84B52EA060C02D0F6
:104EE0009F4205D148B914B000201946BDE8F08DA5
:104EF000002808BF4FF0000C01D04FF0010C0CEB64
:104F0000470313F5001F0AD8002E14BF4FF0010C01
:104F10004FF0000C0CEB440313F5001F07D914B03D
:104F2000324623463946BDE8F04DFFF75BBDDFF85A
:104F300090834FF0000A002FB8BF424523DAE14BBF
:104F40009A42A8BF4FF0020A1DDADC4B93421ADCEA
:104F5000DD4B03EB2253142B08DDC3F1340C26FA8E
:104F60000CF303FA0CFCB4450DD108E05EB9C3F1B3
:104F7000140C22FA0CF303FA0CFC944503D103F051
:104F80000103C3F1020A51EA00031BD1002C19DA14
:104F9000002F18BFBAF1020F02D0BAF1010F07D0EB
:104FA0000220FBF7F8FB14B0BDE8F04DFFF712BD8F
:104FB0000220FBF7F0FBFFF70DFD14B081F000417C
:104FC000BDE8F08D330070D1424525D107F1804214
:104FD00012F5801201BF00280020B84914B008BFA4
:104FE000BDE8F08DB548884207DC002CA1BF18460B
:104FF000214614B0BDE8F08D07E0002CBFBF184675
:1050000084F0004114B0BDE8F08DB0497944D1E995
:10501000000114B0BDE8F08DDFF8A0C262452AD1CE
:10502000002C24DA39B1414517D1002804BF0020F3
:1050300002461CD106E040B10220FBF7ACFBFFF7B3
:10504000D9FC0A46394600F0D7BA9D4A394614B011
:10505000002062F31E01BDE8F08D08DA14B03B4673
:10506000BDE8F04D02460020614602F083BB14B05B
:105070003946BDE8F08D414517DAB4F1804F0CD0C8
:10508000A4F10053B3F1FF530FD13B1E0DDB14B05D
:105090001946BDE8F04D00F0D9BB3B4614B00246BE
:1050A000BDE8F04D194602F03FBD050027F0004372
:1050B0003AD1E1B1414537D1002F06DD002CA1BF27
:1050C0000020414614B0BDE8F08D002F01DD002C1A
:1050D0001FDB002F16DA002C14DBBAF1010F4FF0A2
:1050E000000014BF76497A4914B0BDE8F08DBAF1DA
:1050F000020F18BF002F0CD0BAF1010F09D1002FF9
:1051000007DA0BE0002FB8BF002C0DDABAF1010F5F
:1051100004D0002014B00146BDE8F08D14B000208A
:105120004FF00041BDE8F08D4FF0010808EBE77C3F
:10513000CDF814C05CEA0A0C0DD0DFF898C16245C6
:105140007EDDDFF894C1654B624512DD8B420ADBE0
:10515000002C18DB23E00120FBF71DFB14B0BDE899
:10516000F04DFFF741BC554A8A4202DC002C0ADCB4
:1051700015E0994202DA002C11DA04E04F4B994213
:1051800019DD002C0BDD0220FBF705FBFFF732FCDD
:105190004B4A14B061F31E021146BDE8F08D0220A7
:1051A000FBF7F9FAFFF72EFC444A14B061F31E0234
:1051B0001146BDE8F08D0022394602F0DBFE0746BD
:1051C0000D466FF0010203F0CCFA4FF05532444B1C
:1051D00002F0DEFD3A462B4602F0A6FC0022414BCF
:1051E00002F0D6FD80468B463A462B4610461946BD
:1051F00002F09AFC42465B4602F096FC88460E900E
:105200004FF0C042384B3846294602F08DFC8346A9
:105210000091364A344B41460E9802F085FC804698
:105220000191334A334B3846294602F07DFC424611
:10523000019B02F09FFE0D4602460B460C9000E0DB
:1052400011E05846009902F0D9F9002788465A46DD
:105250003846009B02F08EFE2B460C9A02F098FD19
:10526000024600F079B90020B1F5801F07DA352237
:105270002846194603F075FA05466FF0340000EB36
:105280002150A0F2FF300190C1F3130040F07F6184
:1052900041F04051029118498842D8BF4FF0000BAD
:1052A00035DD16498142C8BF4FF0010B2FDC4FF0AE
:1052B000000B25E0FFFF1F00FFFF0F000000F03F85
:1052C0000000F07F0000404301FCFFFF00410000B0
:1052D0000000F0FF0000E0410000F043FFFFEF3F5F
:1052E0005555D53F0000E03F4715F73FFE822B653F
:1052F00044DF5DF80BAE543E8E9803007AB60B0087
:105300000198401C01900298A0F580100290FF487F
:105310000299784400EBCB000991D0E9002328469C
:105320000B93129202F026FE00910A9028460B9BE6
:10533000129A099902F062F902460B460020F449DC
:1053400002F018FACDE90C010B46024600990A98C2
:1053500002F0EAFB0690EF4888460027784402995D
:10536000006810904FF0005040EA610000EB8B4065
:1053700000F5002102910B9B129A109802F0FAFDA1
:105380002A46099B02F004FD3A46434602F0CCFB54
:105390000891129038464146029B109A02F0C4FBD5
:1053A000009B0A9A02F0F4FC089B129A02F0E2FDBC
:1053B000DDE90C2302F0B8FB0B91069A12904346EC
:1053C0001046194602F0B0FB05460246D2480B468D
:1053D0000A9106217844FFF7A7FA0A9B2A4608910A
:1053E00002901046194602F09FFB089B029A02F0B9
:1053F0009BFB05460991434638461946069A02F03A
:10540000FDF80B9B129A02F08FFB2A46099B02F0D3
:10541000F5F8CDE908013A4643461046194602F030
:1054200083FB0A910022BD4B009002F0E7F8DDE912
:10543000082302F0E3F80D463A46B84B384602F02E
:1054400099FD0A9B009A02F095FDDDE9082302F020
:105450009FFCCDE908013A462B461046414602F032
:1054600063FB00910A90DDE908014346069A02F0C9
:105470005BFB069088462B463A460B99129802F041
:1054800053FB4346069A02F0B9F880460B460246A3
:105490000D9100990A9802F0B1F800200F460546D8
:1054A000009B0A9A02F066FD42460D9B02F070FCDA
:1054B00088460E904FF06042994B2846394602F0DC
:1054C00033FB02910090974A954B41460E9802F0AB
:1054D0002BFB80460391944A944B2846394602F0B0
:1054E00023FB4246039B02F089F8914A7A4402EB7F
:1054F000CB03D3E9002302F081F805460791019818
:1055000002F0BFFA0C9003912A46079B029900987B
:1055100002F074F8874A7A4402EBCB03D3E9002304
:105520009346019302F06AF8039B0C9A02F066F826
:10553000002788463846039B0C9A02F01BFD5A460A
:10554000019B02F017FD029B009A02F013FD2A4610
:10555000079B02F01DFC02460020069005986C4D4A
:10556000AAF10103184301D1734D069000200B46A8
:1055700004903046214602F0D7FA82468B462346F5
:1055800030461946049A02F0F5FC3A46434602F0CA
:10559000CBFA52465B4602F031F806468A463A4656
:1055A00043462146049802F0BFFA04460F463246AD
:1055B000534602F023F8614A8B46914221DBABEB64
:1055C000020353EA000210D122463B4602F0D2FC0D
:1055D000804603915A4A5B4B3046514602F00EF822
:1055E0004246039B02F09EFB27D20220FBF7D3F832
:1055F000FFF700FA0A46294614B062F31E01BDE81F
:10560000F08D514B2BF000429A4216D34F4A0BEBD0
:10561000020353EA000208D122463B4602F0AAFCEC
:105620003246534602F07EFB07D80220FBF7B3F860
:10563000FFF7E8F90A462946DEE72BF00040444927
:10564000444A01EB20514FF00008824223DA481C03
:105650004FF4801121FA00F058443F4AC0F30A5138
:105660007A443E4BA1F2FF31CB4020EA0303C0F362
:10567000130040F4801CC1F1140012682CFA00F8E9
:10568000BBF1000FB8BFC8F100082046394602F050
:1056900071FC04460F4622463B463046514601F017
:1056A000ADFF4FF0000B5A462D4B5846039102F0C8
:1056B0003BFA00910A902B4A2B4B5846039902F073
:1056C00033FA0491029022463B465846039902F071
:1056D00051FC3246534602F05BFB244A244B02F055
:1056E00023FA049B029A01F089FF07468A46009B31
:1056F0000A9A01F083FF04460E46009B0A9A02F0C4
:1057000039FC3A46534602F043FB33E0423D000089
:105710000000F03FB03D0000B03C00000000084039
:1057200009C7EE3FFD033ADCF5015B14E02F3EBEF6
:10573000883B00004E3B00000000F0BF000090409E
:10574000FE822B654715973C00CC904000346F3F9C
:1057500001FCFFFF0000E03FAC3A0000FFFF0F003C
:10576000432EE63F396CA80C615C20BEEF39FAFE8F
:10577000422EE63F0746224633460F911046194611
:1057800002F0D2F9834602462E488A460B4605218E
:105790007844FFF7C9F85A46534602F0C5F9224645
:1057A000334602F0F5FA82468B463A4620463146A9
:1057B0000F9B02F0B9F93A460F9B01F01FFF0F460D
:1057C0000A9000224FF080435046594602F0D2FB27
:1057D0000391009052465B462046314602F0A4F900
:1057E000039B009A01F0C6FF3B460A9A02F0C2FBF7
:1057F0002246334602F0BEFB0022134B02F0C8FAE9
:105800000E46044601EB08510815002810DC4246FC
:105810002046314602F0A5FFFFF772F8042808BFC2
:10582000FFF7F0F842462046314602F09AFF044660
:1058300006980B4614B022462946BDE8F04D02F00A
:1058400073B90000243900000000F03F2DE9F04159
:1058500006460F4602F0A8FA04000D4618BF0120C4
:10586000284320F00040C0F17F6000F1E040C00F0D
:105870000ED0301C18BF0120384320F00040C0F18A
:105880007F6000F1E040C00F04BF0120FAF783FF02
:1058900020462946BDE8F0810FB438B505A8009030
:1058A0001248009A0499FAF72BFD002000900F4847
:1058B000FAF78AFE054600BF0D48008800F0400058
:1058C0000028F9D000240CE00848005D0849091DB3
:1058D000088000BF0648008800F040000028F9D08A
:1058E000641CAC42F0D338BC5DF814FBB804002053
:1058F0000038014010B5044601200949087061785C
:10590000207801EB002007490860A01C0549843974
:10591000C1F88C0001210348001FFCF709FC10BDF1
:1059200010000020840002400FB438B505A8009094
:105930001248009A0499FAF7E3FC002000900F48FF
:10594000FAF742FE054600BF0D48008800F040000F
:105950000028F9D000240CE00848005D0849091D22
:10596000088000BF0648008800F040000028F9D0F9
:10597000641CAC42F0D338BC5DF814FBB8090020BD
:1059800000440040014601F00F010A2902DA01F14A
:10599000300001E001F1570040B270472DE9F043BB
:1059A000BDB00646884615461F46DDF810910EB17B
:1059B00005B117B93DB0BDE8F083B9F1400F00DD86
:1059C000F8E7402116A8FAF7B7FE402106A8FAF733
:1059D000B3FE4A46394616A8FAF715FE4A46394636
:1059E00006A8FAF710FE00240CE016A8005D80F06F
:1059F000360016A9085506A8005D80F05C0006A9CF
:105A00000855641C402CF0DB26A800F0AFF826A84F
:105A100001F042FD402216A926A801F053FD42469E
:105A2000314626A801F04EFD01A926A800F02AF86B
:105A300026A800F09BF826A801F02EFD402206A91A
:105A400026A801F03FFD142201A926A801F03AFD85
:105A500001A926A800F016F800240FE001A9095DAD
:105A60000811FFF78FFF05F8140001A9085DFFF783
:105A700089FF012101EB44016854641C142CEDDB07
:105A800000BF97E72DE9FC4704460D462068400F0C
:105A9000616840EAC1062068C700300E8DF800003A
:105AA000300C8DF80100300A8DF80200F0B28DF84C
:105AB0000300380E8DF80400380C8DF80500380A04
:105AC0008DF80600F8B28DF80700207800F03F0846
:105AD000B8F1380F02D2C8F1380001E0C8F17800FF
